:020000040000FA
:100000000A128A11FC2FFF1B0D2883137F188317F8
:100010000008840A0319FF0A08007F087F398A0054
:0A0020000408840A0319FF0A820095
:100D6600F000831203130C1EB92EBA2EB42E70088F
:100D7600990008000A128A11F1260A128A110A122B
:100D86008A1120270A128A11C22E0A128A110028F5
:100D96007330F3007308F600D62E77080A128A110C
:100DA600B3260A128A117208F4007108F300F10AD8
:100DB6000319F20A740883120313FF0073088400F0
:100DC6000A128A1103200A128A11F5007508F70023
:100DD6007708031DEF2EF02ED02E0800831603177A
:100DE6008801890183160313850186018312031383
:100DF60085018601831603130F178F160F160F141E
:100E06008B170B178C160C16831203138C120C12ED
:100E16008316031318121815831603178715CF3078
:100E26008316031399009A01831203139817181354
:100E3600181683160313981608000230FA000430B9
:100E4600F900BA30F800F80B262FF90B262FFA0B0B
:100E5600262F00008130F1008830F2000A128A1134
:100E6600CB260A128A110230FA000430F900BA3091
:100E7600F800F80B3C2FF90B3C2FFA0B3C2F000027
:100E86005830F1008830F2000A128A11CB260A1275
:100E96008A110230FA000430F900BA30F800F80B73
:100EA600522FF90B522FFA0B522F0000BE30F100D1
:100EB6008830F2000A128A11CB260A128A110230F1
:100EC600FA000430F900BA30F800F80B682FF90B75
:100ED600682FFA0B682F0000D630F1008830F20038
:100EE6000A128A11CB260A128A11831203138C1E48
:100EF6007D2F7E2F782F31301A06031D832F842FE6
:100F0600B12F0630FA001330F900AD30F800F80BB7
:100F16008A2FF90B8A2FFA0B8A2F912FA030F10016
:100F26008830F2000A128A11CB260A128A1106307C
:100F3600FA001330F900AD30F800F80BA02FF90BCA
:100F4600A02FFA0BA02FA72FEE30F1008830F20069
:100F56000A128A11CB260A128A11FB2F32301A0680
:100F6600031DB62FB72FD62F0630FA001330F9001F
:100F7600AD30F800F80BBD2FF90BBD2FFA0BBD2FC6
:100F8600C42F0030F1008830F2000A128A11CB26F5
:100F96000A128A11831203138C1ED22FD32FCD2F40
:100FA6001A088500FB2F33301A06031DDB2FDC2FB2
:100FB600FB2F0630FA001330F900AD30F800F80BBD
:100FC600E22FF90BE22FFA0BE22FE92F2C30F1007A
:100FD6008830F2000A128A11CB260A128A1183126D
:100FE60003138C1EF72FF82FF22F1A088600FB2FFB
:100FF600080083010A128A11BD2E0D340D345034B7
:1010060072346534733469346F346E346534203425
:1010160065346C342034633461347234613463343F
:1010260074346534723420346134203463346F345C
:101036006C346F34633461347234203465346E3406
:10104600203450344F345234543441340D340D343A
:1010560000340D340D3450347234653473346934CD
:101066006F346E346534203465346C342034633424
:1010760061347234613463347434653472342034C8
:101086006134203463346F346C346F3463346134C8
:101096007234203465346E34203450344F34523434
:1010A600543442340D340D3400342034203420348A
:1010B60020342834313429342034443465347334AC
:1010C60070346C346534673461347234203463347C
:1010D6006134643465346E34613420346434653488
:1010E6002034633461347234613463347434653467
:1010F60072346534733420340D3400340D34513475
:1011060075346534203461346334633469346F3440
:101116006E34203464346534733465346134203479
:1011260065346A34653463347534743461347234C6
:101136003F343A3420340D3400340D340D344C34FD
:101146006134203463346134643465346E3461341C
:101156002034643465342034633461347234613449
:1011660063347434653472346534733420346534CE
:1011760073343A3400342034203420342034283474
:10118600323429342034433461346D346234693462
:1011960061347234203450344F3452345434413430
:1011A60020340D34003420342034203420342834C4
:1011B600333429342034433461346D346234693431
:1011C60061347234203450344F34523454344234FF
:1011D60020340D340034203448346F344C346134B8
:1011E60020344A346F34533465342034793420340F
:0E11F6004B347534523474340D340D340034DF
:04400E00C430FF3F7C
:00000001FF
