:020000040000FA
:060000000A128A110C280F
:10000800FE00030EF2000A08F3000A128A116B2898
:100018000A128A110F2883010A128A11C328033091
:10002800831603178800890103308316031385009C
:10003800831203138501831603130F178F160F16E8
:100048000F148B170B170C17831203130C1383163B
:1000580003139F131F129F12831203131F083F39A4
:1000680080389F00C3309F058530F400F40B3A2890
:10007800831203131F148530F400F40B41288316F0
:10008800031307158714FA3092003F3083120313C5
:1000980097051708F0390C3897001D08F0390C3807
:1000A8009D000F3095000F309B00CF3097051D1233
:1000B8009D128C100330920412158C1C642865283C
:1000C80061288C1083160313071187100800831208
:1000D80003130C1F70287128BC281F0CF000700C2B
:1000E8000F39003A031D79287A289B281E08F0004A
:1000F8000310700C7D3E95001E080139F000F00ECB
:10010800F00D17087006DF39700697001E08F0001A
:1001180007300310F00CFF3E031D8D287008F10016
:10012800F10E17087106EF3971069700BB281E08F3
:10013800F0000310700C7D3E9B001E080139F00092
:10014800F00EF00D1D087006DF3970069D001E08C0
:10015800F00007300310F00CFF3E031DAE287008B6
:10016800F100F10E1D087106EF3971069D000C13A0
:1001780073088A00720E8300FE0E7E0E09000A12B2
:100188008A1113200A128A11831203139F149F18CD
:10019800CE28CF28CB281F0CF500750C0F39003A54
:1001A800031DD728D828DD281F08C33904389F0025
:1001B800DF28C3309F058530F500F50BE128831251
:0C01C80003139F14CB280A128A110C2884
:04400E00C430FF3F7C
:00000001FF
