:020000040000FA
:060000000A128A110E280D
:10000800FE00030EF2000408F3000A08F4000A12C6
:100018008A1198280A128A11112883132A30FD00A0
:100028000230FE003630FF00203084000A128A11A8
:1000380027220A128A11B401B501B601B701B80125
:10004800B901BA01BB01F501F601F701F801830115
:100058000A128A11F22983120313B001AB1F352843
:1000680036283D28AA09AB09AA0A0319AB0AB00128
:10007800B00AAD1F402841284A28AC09AD09AC0A8E
:100088000319AD0A0130AE002E08B006B101B20165
:100098002A082B040319512852288928AF01AF0ACE
:1000A800602801300310AA0DAB0DFF3E031D562832
:1000B8000130AE002E08AF07AB1F6328642855280F
:1000C80001300310B10DB20DFF3E031D65282B084A
:1000D8002D02031D71282A082C02031C7428752878
:1000E8007C282A08AC022B08031CAD03AD0231148E
:1000F80001300310AB0CAA0CFF3E031D7D28013014
:10010800AF02031D882889286428300803198D2820
:100118008E289328B109B209B10A0319B20A320824
:10012800AB003108AA0008000B1D9B289C28DC287E
:10013800831203130611861106120B11D9308100A0
:1001480077087804031DA928AA28B72806110614D9
:100158003608203E84008313000888000130F70029
:100168000030F800DC2877037804031DBC28BD287C
:10017800CA28061086143808203E84008313000815
:1001880088000230F7000030F800DC2802307706DB
:100198007804031DD028D128DC28861006153A08D3
:1001A800203E8400831300088800F701F801DC284A
:1001B800831203130C1FE128E228F6281F0CF00015
:1001C800700C0F39003A031DEA28EB28EE281E08A8
:1001D8008700F5281E08F000F1017008F500710885
:1001E800F6000C1374088A0073088400720E8300EA
:1001F800FE0E7E0E090083120313B001AD1F052900
:1002080006290D29AC09AD09AC0A0319AD0AB001DC
:10021800B00AAB1F102911291629AA09AB09AA0A85
:100228000319AB0A2A082B0403191B291C294B297B
:10023800AF01AF0A2A2901300310AA0DAB0DFF3E0A
:10024800031D20290130AE002E08AF07AB1F2D2952
:100258002E291F292B082D02031D34292A082C02B8
:10026800031C372938293E292A08AC022B08031C0D
:10027800AD03AD0201300310AB0CAA0CFF3E031D09
:100288003F290130AF02031D4A294B292E29300886
:1002980003194F2950295529AC09AD09AC0A03198E
:1002A800AD0A2D08AB002C08AA00080064308312A0
:1002B8000313AA000030AB007608AD007508AC0047
:1002C8000A128A112F200A128A11831203132B088B
:1002D800B7002A08B6006430AA000030AB007608E0
:1002E800AD007508AC000A128A11FF200A128A11A3
:1002F800831203132B08B5002A08B4000A30AA0099
:100308000030AB003508AD003408AC000A128A1181
:100318002F200A128A11831203132B08B9002A0806
:10032800B8000A30AA000030AB003508AD00340828
:10033800AC000A128A11FF200A128A1183120313D1
:100348002B08BB002A08BA000800033083160317DD
:10035800880089010330831603138500860187010D
:10036800880183120313850186018701880183169A
:1003780003130F178F160F160F148B170B178B16E7
:100388000C17831203130C130B118316031381111B
:100398008112011581140114D930831203138100CD
:1003A800831603139F131F129F12831203139F17A1
:1003B800C3309F05843083120313AA00AA0BE229D5
:1003C8000000831203131F14843083120313AA003E
:1003D800AA0BEC290000F701F80108000A128A119B
:1003E800A9210A128A11831203139F140A128A116F
:1003F8005A210A128A11831203139F18042A052A04
:10040800FA291F0CB300330C0F39003A031D0D2ACB
:100418000E2A132A1F08C33904389F00152AC3302F
:100428009F05843083120313B300B30B192A00000D
:10043800831203139F14FA290A128A110E287E08C0
:100448008A007F0882000A128A1123220A128A115E
:100458008000840A04087D0603190034FF0A031982
:10046800FE0A272A3F3406345B344F3466346D3431
:080478007D3407347F34673442
:04400E00C430FF3F7C
:00000001FF
