:020000040000FA
:060000000A128A110E280D
:10000800FE00030EF1000408F2000A08F3000A12C9
:100018008A118E280A128A11112883132A30FD00AA
:100028000130FE00EC30FF00203084000A128A11F3
:10003800DD210A128A11F701F80183010A128A11D7
:10004800C22983120313AF01AB1F2B282C28332896
:10005800AA09AB09AA0A0319AB0AAF01AF0AAD1F77
:10006800362837284028AC09AD09AC0A0319AD0A6F
:100078000130F4007408AF06B001B1012A082B045E
:100088000319472848287F28AE01AE0A56280130B0
:100098000310AA0DAB0DFF3E031D4C280130F400E0
:1000A8007408AE07AB1F59285A284B280130031093
:1000B800B00DB10DFF3E031D5B282B082D02031D5B
:1000C80067282A082C02031C6A286B2872282A0829
:1000D800AC022B08031CAD03AD0230140130031031
:1000E800AB0CAA0CFF3E031D73280130AE02031DA2
:1000F8007E287F285A282F080319832884288928CE
:10010800B009B109B00A0319B10A3108AB003008C7
:10011800AA0008000B1D91289228D22883120313E5
:100128000611861106120B11D93081007708780460
:10013800031D9F28A028AD28061206153608203E64
:1001480084008313000888000130F7000030F800AD
:10015800D22877037804031DB228B328C0280611D3
:1001680086153808203E8400831300088800023072
:10017800F7000030F800D228023077067804031D13
:10018800C628C728D228861106163A08203E8400B9
:10019800831300088800F701F801D2280B1CD52822
:1001A800D628E72883120313061CDB28DC28E0285E
:1001B8000130F00070088707861CE328E428E62849
:1001C800013087020B1073088A0072088400710ED0
:1001D8008300FE0E7E0E090083120313AF01AD1FCC
:1001E800F628F728FE28AC09AD09AC0A0319AD0AB0
:1001F800AF01AF0AAB1F012902290729AA09AB09D8
:10020800AA0A0319AB0A2A082B0403190C290D2979
:100218003C29AE01AE0A1B2901300310AA0DAB0D13
:10022800FF3E031D11290130F4007408AE07AB1F0F
:100238001E291F2910292B082D02031D25292A08EC
:100248002C02031C282929292F292A08AC022B084B
:10025800031CAD03AD0201300310AB0CAA0CFF3E2A
:10026800031D30290130AE02031D3B293C291F29FB
:100278002F080319402941294629AC09AD09AC0AC0
:100288000319AD0A2D08AB002C08AA000800643039
:1002980083120313AA000030AB007608AD0075087E
:1002A800AC000A128A1125200A128A11831203133C
:1002B8002B08B7002A08B6006430AA000030AB004B
:1002C8007608AD007508AC000A128A11F0200A12EF
:1002D8008A11831203132B08B5002A08B4000A30C8
:1002E800AA000030AB003508AD003408AC000A1293
:1002F8008A1125200A128A11831203132B08B900C8
:100308002A08B8000A30AA000030AB003508AD0052
:100318003408AC000A128A11F0200A128A118312DA
:1003280003132B08BB002A08BA000800831603171A
:100338008801890103308316031386008701880129
:1003480083120313860187018801831603130F178D
:100358008F160F160F148B178B168B150B110B108E
:100368001614961481118112011581140114D930C3
:10037800831203138100F701F80108000A128A1199
:100388009A210A128A11831203130708B200B301D3
:100398003208F5003308F6000A128A114B210A12B6
:1003A8008A11C7290A128A110E287E088A007F0836
:1003B80082000A128A11D9210A128A118000840A3D
:1003C80004087D0603190034FF0A0319FE0ADD2913
:1003D8003F3406345B344F3466346D347D3407342F
:0403E8007F346734C3
:04400E00C430FF3F7C
:00000001FF
