:060000000A128A11142906
:10000800F200030EF3000B1810200B191820730EC2
:100018008300F20E720E090003138312061C850A70
:10002800861C85030B10080003138312F10A5B2159
:020038000800BE
:100200008A010A140F3982073F3406345B344F34B5
:1002100066346D347D3407347F346F3477347C3406
:1002200039345E34793471341E21342150213B211C
:100230004321031383124C215F211B2903178316CB
:100240008801890103138316F0308500033086008E
:1002500087018801811315149514031383128501F6
:100260008601870188010800031383160F178F1674
:100270000F160F140800031383128B178B150B1026
:100280008B160B1108000313831616149614031310
:10029000831206080B1008000508002187000800DB
:1002A00003138316811281110115811401140313A4
:1002B00083125B210800B23081000B11080064300A
:1002C0007102031D0800F00A700800218800F10186
:0202D000080024
:04400E00C430FF3F7C
:00000001FF
