:060000000A128A11142906
:10000800F000030EF1000B1810200B191820710EC8
:100018008300F00E700E0900031383120618850A78
:10002800861885030B10080003138312B230810071
:100038000B11061186110612861206138613211853
:100048003128A118352821193928A1193D28211A44
:1000580041282408870006154528250887008615A5
:1000680048282608880006164B2827088800861680
:100078004E2828088800061751282908880086175E
:1000880054280130A10608000330A10608000630F4
:10009800A10608000C30A10608001830A1060800C7
:0400A800A1010800AA
:100200008A010A140F3982073F3406345B344F34B5
:1002100066346D347D3407347F346F3477347C3406
:1002200039345E3479347134212133214B213A2120
:100230004221031383120508AD0075215A21632161
:100240001B2903178316880189010313831685016F
:10025000033086008701880103138312850186011C
:10026000870188010800031383160F178F160F16D6
:100270000F140800031383128B178B150B108B16AA
:100280000B1108000313831616149614031383121C
:1002900006080B1008000313831681128111011543
:1002A000811401140313831203138312B2308100EB
:1002B0000B1108000508A00020080F39A200200E2D
:1002C0000F39A300080022080021A4002308002100
:1002D000A5002A080021A6002B080021A7002C0851
:1002E0000021A8003F30A9000800AC0164302D02B5
:1002F0000318AC0A0318AD00031876298021080002
:10030000AB010A302D020318AB0A0318AD00031825
:1003100081298B210800AA010130AD020318AA0A25
:06032000031C08008C29FB
:04400E00C430FF3F7C
:00000001FF
